{
  "_format": "hh-sol-artifact-1",
  "contractName": "Multisig",
  "sourceName": "contracts/Multisig.sol",
  "abi": [
    {
      "inputs": [],
      "stateMutability": "nonpayable",
      "type": "constructor"
    },
    {
      "anonymous": false,
      "inputs": [
        {
          "indexed": false,
          "internalType": "address",
          "name": "sender",
          "type": "address"
        },
        {
          "indexed": false,
          "internalType": "uint256",
          "name": "amount",
          "type": "uint256"
        },
        {
          "indexed": false,
          "internalType": "uint256",
          "name": "timeOfTransaction",
          "type": "uint256"
        }
      ],
      "name": "fundsDeposited",
      "type": "event"
    },
    {
      "anonymous": false,
      "inputs": [
        {
          "indexed": false,
          "internalType": "address",
          "name": "sender",
          "type": "address"
        },
        {
          "indexed": false,
          "internalType": "uint256",
          "name": "amount",
          "type": "uint256"
        },
        {
          "indexed": false,
          "internalType": "uint256",
          "name": "timeOfTransaction",
          "type": "uint256"
        }
      ],
      "name": "fundsWithdrawed",
      "type": "event"
    },
    {
      "anonymous": false,
      "inputs": [
        {
          "indexed": false,
          "internalType": "address",
          "name": "sender",
          "type": "address"
        },
        {
          "indexed": false,
          "internalType": "address",
          "name": "receiver",
          "type": "address"
        },
        {
          "indexed": false,
          "internalType": "uint256",
          "name": "amount",
          "type": "uint256"
        },
        {
          "indexed": false,
          "internalType": "uint256",
          "name": "id",
          "type": "uint256"
        },
        {
          "indexed": false,
          "internalType": "uint256",
          "name": "approvals",
          "type": "uint256"
        },
        {
          "indexed": false,
          "internalType": "uint256",
          "name": "timeOfTransaction",
          "type": "uint256"
        }
      ],
      "name": "transferApproved",
      "type": "event"
    },
    {
      "anonymous": false,
      "inputs": [
        {
          "indexed": false,
          "internalType": "address",
          "name": "sender",
          "type": "address"
        },
        {
          "indexed": false,
          "internalType": "address",
          "name": "receiver",
          "type": "address"
        },
        {
          "indexed": false,
          "internalType": "uint256",
          "name": "amount",
          "type": "uint256"
        },
        {
          "indexed": false,
          "internalType": "uint256",
          "name": "id",
          "type": "uint256"
        },
        {
          "indexed": false,
          "internalType": "uint256",
          "name": "approvals",
          "type": "uint256"
        },
        {
          "indexed": false,
          "internalType": "uint256",
          "name": "timeOfTransaction",
          "type": "uint256"
        }
      ],
      "name": "transferCancelled",
      "type": "event"
    },
    {
      "anonymous": false,
      "inputs": [
        {
          "indexed": false,
          "internalType": "address",
          "name": "sender",
          "type": "address"
        },
        {
          "indexed": false,
          "internalType": "address",
          "name": "receiver",
          "type": "address"
        },
        {
          "indexed": false,
          "internalType": "uint256",
          "name": "amount",
          "type": "uint256"
        },
        {
          "indexed": false,
          "internalType": "uint256",
          "name": "id",
          "type": "uint256"
        },
        {
          "indexed": false,
          "internalType": "uint256",
          "name": "approvals",
          "type": "uint256"
        },
        {
          "indexed": false,
          "internalType": "uint256",
          "name": "timeOfTransaction",
          "type": "uint256"
        }
      ],
      "name": "transferCreated",
      "type": "event"
    },
    {
      "anonymous": false,
      "inputs": [
        {
          "indexed": false,
          "internalType": "address",
          "name": "sender",
          "type": "address"
        },
        {
          "indexed": false,
          "internalType": "address",
          "name": "receiver",
          "type": "address"
        },
        {
          "indexed": false,
          "internalType": "uint256",
          "name": "amount",
          "type": "uint256"
        },
        {
          "indexed": false,
          "internalType": "uint256",
          "name": "id",
          "type": "uint256"
        },
        {
          "indexed": false,
          "internalType": "uint256",
          "name": "approvals",
          "type": "uint256"
        },
        {
          "indexed": false,
          "internalType": "uint256",
          "name": "timeOfTransaction",
          "type": "uint256"
        }
      ],
      "name": "transferExecuted",
      "type": "event"
    },
    {
      "anonymous": false,
      "inputs": [
        {
          "indexed": false,
          "internalType": "address",
          "name": "addedBy",
          "type": "address"
        },
        {
          "indexed": false,
          "internalType": "address",
          "name": "added",
          "type": "address"
        },
        {
          "indexed": false,
          "internalType": "uint256",
          "name": "timeOfTransaction",
          "type": "uint256"
        }
      ],
      "name": "walletOwnerAdded",
      "type": "event"
    },
    {
      "anonymous": false,
      "inputs": [
        {
          "indexed": false,
          "internalType": "address",
          "name": "removedBy",
          "type": "address"
        },
        {
          "indexed": false,
          "internalType": "address",
          "name": "ownerRemoved",
          "type": "address"
        },
        {
          "indexed": false,
          "internalType": "uint256",
          "name": "timeOfTransaction",
          "type": "uint256"
        }
      ],
      "name": "walletOwnerRemoved",
      "type": "event"
    },
    {
      "inputs": [
        {
          "internalType": "address",
          "name": "owner",
          "type": "address"
        }
      ],
      "name": "addWalletOwner",
      "outputs": [],
      "stateMutability": "nonpayable",
      "type": "function"
    },
    {
      "inputs": [
        {
          "internalType": "uint256",
          "name": "id",
          "type": "uint256"
        }
      ],
      "name": "approveTransfer",
      "outputs": [],
      "stateMutability": "nonpayable",
      "type": "function"
    },
    {
      "inputs": [
        {
          "internalType": "uint256",
          "name": "id",
          "type": "uint256"
        }
      ],
      "name": "cancelTransfer",
      "outputs": [],
      "stateMutability": "nonpayable",
      "type": "function"
    },
    {
      "inputs": [
        {
          "internalType": "address payable",
          "name": "receiver",
          "type": "address"
        },
        {
          "internalType": "uint256",
          "name": "amount",
          "type": "uint256"
        }
      ],
      "name": "createTransferRequest",
      "outputs": [],
      "stateMutability": "nonpayable",
      "type": "function"
    },
    {
      "inputs": [],
      "name": "deposit",
      "outputs": [],
      "stateMutability": "payable",
      "type": "function"
    },
    {
      "inputs": [
        {
          "internalType": "address",
          "name": "user",
          "type": "address"
        }
      ],
      "name": "getBal",
      "outputs": [
        {
          "internalType": "uint256",
          "name": "",
          "type": "uint256"
        }
      ],
      "stateMutability": "view",
      "type": "function"
    },
    {
      "inputs": [],
      "name": "getBalance",
      "outputs": [
        {
          "internalType": "uint256",
          "name": "",
          "type": "uint256"
        }
      ],
      "stateMutability": "view",
      "type": "function"
    },
    {
      "inputs": [],
      "name": "getLimit",
      "outputs": [
        {
          "internalType": "uint256",
          "name": "",
          "type": "uint256"
        }
      ],
      "stateMutability": "view",
      "type": "function"
    },
    {
      "inputs": [
        {
          "internalType": "uint256",
          "name": "id",
          "type": "uint256"
        }
      ],
      "name": "getNumOfApprovals",
      "outputs": [
        {
          "internalType": "uint256",
          "name": "",
          "type": "uint256"
        }
      ],
      "stateMutability": "view",
      "type": "function"
    },
    {
      "inputs": [],
      "name": "getTransferRequests",
      "outputs": [
        {
          "components": [
            {
              "internalType": "address",
              "name": "sender",
              "type": "address"
            },
            {
              "internalType": "address payable",
              "name": "receiver",
              "type": "address"
            },
            {
              "internalType": "uint256",
              "name": "amount",
              "type": "uint256"
            },
            {
              "internalType": "uint256",
              "name": "id",
              "type": "uint256"
            },
            {
              "internalType": "uint256",
              "name": "approvals",
              "type": "uint256"
            },
            {
              "internalType": "uint256",
              "name": "timeOfTransaction",
              "type": "uint256"
            }
          ],
          "internalType": "struct Multisig.Transfer[]",
          "name": "",
          "type": "tuple[]"
        }
      ],
      "stateMutability": "view",
      "type": "function"
    },
    {
      "inputs": [],
      "name": "getWalletBalance",
      "outputs": [
        {
          "internalType": "uint256",
          "name": "",
          "type": "uint256"
        }
      ],
      "stateMutability": "view",
      "type": "function"
    },
    {
      "inputs": [],
      "name": "getWalletOwners",
      "outputs": [
        {
          "internalType": "address[]",
          "name": "",
          "type": "address[]"
        }
      ],
      "stateMutability": "view",
      "type": "function"
    },
    {
      "inputs": [
        {
          "internalType": "address",
          "name": "owner",
          "type": "address"
        }
      ],
      "name": "removeWalletOwner",
      "outputs": [],
      "stateMutability": "nonpayable",
      "type": "function"
    },
    {
      "inputs": [
        {
          "internalType": "uint256",
          "name": "amount",
          "type": "uint256"
        }
      ],
      "name": "withdraw",
      "outputs": [],
      "stateMutability": "nonpayable",
      "type": "function"
    }
  ],
  "bytecode": "0x60806040523480156200001157600080fd5b50336000806101000a81548173ffffffffffffffffffffffffffffffffffffffff021916908373ffffffffffffffffffffffffffffffffffffffff160217905550600160008054906101000a900473ffffffffffffffffffffffffffffffffffffffff169080600181540180825580915050600190039060005260206000200160009091909190916101000a81548173ffffffffffffffffffffffffffffffffffffffff021916908373ffffffffffffffffffffffffffffffffffffffff16021790555060018080549050620000e89190620000f4565b60038190555062000168565b600062000101826200012f565b91506200010e836200012f565b92508282101562000124576200012362000139565b5b828203905092915050565b6000819050919050565b7f4e487b7100000000000000000000000000000000000000000000000000000000600052601160045260246000fd5b61309e80620001786000396000f3fe6080604052600436106100dd5760003560e01c806393dfbd9e1161007f578063b295a00e11610059578063b295a00e146102ac578063cacca4a0146102d7578063d0e30db014610300578063dd21b1c01461030a576100dd565b806393dfbd9e1461022f578063a04ef14514610258578063aabdc71a14610283576100dd565b8063329a27e7116100bb578063329a27e71461017357806359caecb51461019e57806381edc796146101c75780638a94d41614610204576100dd565b806312065fe0146100e25780632e1a7d4d1461010d5780632fa7808514610136575b600080fd5b3480156100ee57600080fd5b506100f7610333565b6040516101049190612ae0565b60405180910390f35b34801561011957600080fd5b50610134600480360381019061012f9190612425565b6103b9565b005b34801561014257600080fd5b5061015d600480360381019061015891906123b8565b6105fe565b60405161016a9190612ae0565b60405180910390f35b34801561017f57600080fd5b50610188610624565b6040516101959190612ae0565b60405180910390f35b3480156101aa57600080fd5b506101c560048036038101906101c09190612425565b61062c565b005b3480156101d357600080fd5b506101ee60048036038101906101e99190612425565b610bf3565b6040516101fb9190612ae0565b60405180910390f35b34801561021057600080fd5b50610219610c22565b604051610226919061290c565b60405180910390f35b34801561023b57600080fd5b50610256600480360381019061025191906123b8565b610cb0565b005b34801561026457600080fd5b5061026d610f21565b60405161027a919061292e565b60405180910390f35b34801561028f57600080fd5b506102aa60048036038101906102a591906123b8565b611054565b005b3480156102b857600080fd5b506102c1611373565b6040516102ce9190612ae0565b60405180910390f35b3480156102e357600080fd5b506102fe60048036038101906102f99190612425565b61137d565b005b610308611864565b005b34801561031657600080fd5b50610331600480360381019061032c91906123e5565b611a10565b005b60006103746040518060400160405280601d81526020017f53656e646572206f66207468697320636f6e747261637420697320257300000081525033611e40565b600460003373ffffffffffffffffffffffffffffffffffffffff1673ffffffffffffffffffffffffffffffffffffffff16815260200190815260200160002054905090565b6000805b600180549050811015610458573373ffffffffffffffffffffffffffffffffffffffff16600182815481106103f5576103f4612d83565b5b9060005260206000200160009054906101000a900473ffffffffffffffffffffffffffffffffffffffff1673ffffffffffffffffffffffffffffffffffffffff1614156104455760019150610458565b808061045090612cdc565b9150506103bd565b5060011515811515146104a0576040517f08c379a000000000000000000000000000000000000000000000000000000000815260040161049790612a40565b60405180910390fd5b600460003373ffffffffffffffffffffffffffffffffffffffff1673ffffffffffffffffffffffffffffffffffffffff16815260200190815260200160002054821015610522576040517f08c379a000000000000000000000000000000000000000000000000000000000815260040161051990612ac0565b60405180910390fd5b81600460003373ffffffffffffffffffffffffffffffffffffffff1673ffffffffffffffffffffffffffffffffffffffff16815260200190815260200160002060008282546105719190612bdf565b925050819055503373ffffffffffffffffffffffffffffffffffffffff166108fc839081150290604051600060405180830381858888f193505050501580156105be573d6000803e3d6000fd5b507f0792a03eb0f5119772916cb557cdfbe62ed98b1b4c949cd4b8cbaf950d5d08ab3383426040516105f2939291906128d5565b60405180910390a15050565b6000808273ffffffffffffffffffffffffffffffffffffffff1631905080915050919050565b600047905090565b6000805b6001805490508110156106cb573373ffffffffffffffffffffffffffffffffffffffff166001828154811061066857610667612d83565b5b9060005260206000200160009054906101000a900473ffffffffffffffffffffffffffffffffffffffff1673ffffffffffffffffffffffffffffffffffffffff1614156106b857600191506106cb565b80806106c390612cdc565b915050610630565b506001151581151514610713576040517f08c379a000000000000000000000000000000000000000000000000000000000815260040161070a90612a40565b60405180910390fd5b60008060005b60068054905081101561077d57846006828154811061073b5761073a612d83565b5b906000526020600020906006020160030154141561075c576001925061077d565b818061076790612cdc565b925050808061077590612cdc565b915050610719565b50816107be576040517f08c379a00000000000000000000000000000000000000000000000000000000081526004016107b5906129c0565b60405180910390fd5b600681815481106107d2576107d1612d83565b5b906000526020600020906006020160000160009054906101000a900473ffffffffffffffffffffffffffffffffffffffff1673ffffffffffffffffffffffffffffffffffffffff163373ffffffffffffffffffffffffffffffffffffffff1614610871576040517f08c379a000000000000000000000000000000000000000000000000000000000815260040161086890612a60565b60405180910390fd5b6006818154811061088557610884612d83565b5b906000526020600020906006020160020154600460003373ffffffffffffffffffffffffffffffffffffffff1673ffffffffffffffffffffffffffffffffffffffff16815260200190815260200160002060008282546108e59190612b89565b92505081905550600660016006805490506109009190612bdf565b8154811061091157610910612d83565b5b90600052602060002090600602016006828154811061093357610932612d83565b5b90600052602060002090600602016000820160009054906101000a900473ffffffffffffffffffffffffffffffffffffffff168160000160006101000a81548173ffffffffffffffffffffffffffffffffffffffff021916908373ffffffffffffffffffffffffffffffffffffffff1602179055506001820160009054906101000a900473ffffffffffffffffffffffffffffffffffffffff168160010160006101000a81548173ffffffffffffffffffffffffffffffffffffffff021916908373ffffffffffffffffffffffffffffffffffffffff160217905550600282015481600201556003820154816003015560048201548160040155600582015481600501559050506006805480610a4c57610a4b612d54565b5b6001900381819060005260206000209060060201600080820160006101000a81549073ffffffffffffffffffffffffffffffffffffffff02191690556001820160006101000a81549073ffffffffffffffffffffffffffffffffffffffff02191690556002820160009055600382016000905560048201600090556005820160009055505090557f218d714c553080abb0dbc7fc5f603d19d591d24c58a81c89983579c96b55a3de3360068381548110610b0957610b08612d83565b5b906000526020600020906006020160010160009054906101000a900473ffffffffffffffffffffffffffffffffffffffff1660068481548110610b4f57610b4e612d83565b5b90600052602060002090600602016002015460068581548110610b7557610b74612d83565b5b90600052602060002090600602016003015460068681548110610b9b57610b9a612d83565b5b90600052602060002090600602016004015460068781548110610bc157610bc0612d83565b5b906000526020600020906006020160050154604051610be59695949392919061283d565b60405180910390a150505050565b600060068281548110610c0957610c08612d83565b5b9060005260206000209060060201600401549050919050565b60606001805480602002602001604051908101604052809291908181526020018280548015610ca657602002820191906000526020600020905b8160009054906101000a900473ffffffffffffffffffffffffffffffffffffffff1673ffffffffffffffffffffffffffffffffffffffff1681526020019060010190808311610c5c575b5050505050905090565b6000805b600180549050811015610d4f573373ffffffffffffffffffffffffffffffffffffffff1660018281548110610cec57610ceb612d83565b5b9060005260206000200160009054906101000a900473ffffffffffffffffffffffffffffffffffffffff1673ffffffffffffffffffffffffffffffffffffffff161415610d3c5760019150610d4f565b8080610d4790612cdc565b915050610cb4565b506001151581151514610d97576040517f08c379a0000000000000000000000000000000000000000000000000000000008152600401610d8e90612a40565b60405180910390fd5b60005b600180549050811015610e67578273ffffffffffffffffffffffffffffffffffffffff1660018281548110610dd257610dd1612d83565b5b9060005260206000200160009054906101000a900473ffffffffffffffffffffffffffffffffffffffff1673ffffffffffffffffffffffffffffffffffffffff161415610e54576040517f08c379a0000000000000000000000000000000000000000000000000000000008152600401610e4b90612a00565b60405180910390fd5b8080610e5f90612cdc565b915050610d9a565b506001829080600181540180825580915050600190039060005260206000200160009091909190916101000a81548173ffffffffffffffffffffffffffffffffffffffff021916908373ffffffffffffffffffffffffffffffffffffffff16021790555060018080549050610edc9190612bdf565b6003819055507f43abcff3409244ec1056224394af5f818e9a74866f0a11bfee2ad52f68ad6fb9338342604051610f159392919061289e565b60405180910390a15050565b60606006805480602002602001604051908101604052809291908181526020016000905b8282101561104b57838290600052602060002090600602016040518060c00160405290816000820160009054906101000a900473ffffffffffffffffffffffffffffffffffffffff1673ffffffffffffffffffffffffffffffffffffffff1673ffffffffffffffffffffffffffffffffffffffff1681526020016001820160009054906101000a900473ffffffffffffffffffffffffffffffffffffffff1673ffffffffffffffffffffffffffffffffffffffff1673ffffffffffffffffffffffffffffffffffffffff16815260200160028201548152602001600382015481526020016004820154815260200160058201548152505081526020019060010190610f45565b50505050905090565b6000805b6001805490508110156110f3573373ffffffffffffffffffffffffffffffffffffffff16600182815481106110905761108f612d83565b5b9060005260206000200160009054906101000a900473ffffffffffffffffffffffffffffffffffffffff1673ffffffffffffffffffffffffffffffffffffffff1614156110e057600191506110f3565b80806110eb90612cdc565b915050611058565b50600115158115151461113b576040517f08c379a000000000000000000000000000000000000000000000000000000000815260040161113290612a40565b60405180910390fd5b60008080600090505b6001805490508110156111e2578473ffffffffffffffffffffffffffffffffffffffff166001828154811061117c5761117b612d83565b5b9060005260206000200160009054906101000a900473ffffffffffffffffffffffffffffffffffffffff1673ffffffffffffffffffffffffffffffffffffffff1614156111cf57600192508091506111e2565b80806111da90612cdc565b915050611144565b50600115158215151461122a576040517f08c379a000000000000000000000000000000000000000000000000000000000815260040161122190612a20565b60405180910390fd5b600180808054905061123c9190612bdf565b8154811061124d5761124c612d83565b5b9060005260206000200160009054906101000a900473ffffffffffffffffffffffffffffffffffffffff166001828154811061128c5761128b612d83565b5b9060005260206000200160006101000a81548173ffffffffffffffffffffffffffffffffffffffff021916908373ffffffffffffffffffffffffffffffffffffffff16021790555060018054806112e6576112e5612d54565b5b6001900381819060005260206000200160006101000a81549073ffffffffffffffffffffffffffffffffffffffff021916905590556001808054905061132c9190612bdf565b6003819055507fd1f329271e4a98b0181a7d91618a0a5de6f42a1aaf4c1362493d829eaf405a8a3385426040516113659392919061289e565b60405180910390a150505050565b6000600354905090565b6000805b60018054905081101561141c573373ffffffffffffffffffffffffffffffffffffffff16600182815481106113b9576113b8612d83565b5b9060005260206000200160009054906101000a900473ffffffffffffffffffffffffffffffffffffffff1673ffffffffffffffffffffffffffffffffffffffff161415611409576001915061141c565b808061141490612cdc565b915050611381565b506001151581151514611464576040517f08c379a000000000000000000000000000000000000000000000000000000000815260040161145b90612a40565b60405180910390fd5b60008060005b6006805490508110156114ce57846006828154811061148c5761148b612d83565b5b90600052602060002090600602016003015414156114ad57600192506114ce565b81806114b890612cdc565b92505080806114c690612cdc565b91505061146a565b508161150f576040517f08c379a000000000000000000000000000000000000000000000000000000000815260040161150690612aa0565b60405180910390fd5b3373ffffffffffffffffffffffffffffffffffffffff166006828154811061153a57611539612d83565b5b906000526020600020906006020160000160009054906101000a900473ffffffffffffffffffffffffffffffffffffffff1673ffffffffffffffffffffffffffffffffffffffff1614156115c3576040517f08c379a00000000000000000000000000000000000000000000000000000000081526004016115ba906129e0565b60405180910390fd5b60001515600560003373ffffffffffffffffffffffffffffffffffffffff1673ffffffffffffffffffffffffffffffffffffffff168152602001908152602001600020600086815260200190815260200160002060009054906101000a900460ff16151514611667576040517f08c379a000000000000000000000000000000000000000000000000000000000815260040161165e906129a0565b60405180910390fd5b6006818154811061167b5761167a612d83565b5b9060005260206000209060060201600401600081548092919061169d90612cdc565b91905055506001600560003373ffffffffffffffffffffffffffffffffffffffff1673ffffffffffffffffffffffffffffffffffffffff168152602001908152602001600020600086815260200190815260200160002060006101000a81548160ff0219169083151502179055507fef752aa31d5fb48a280f9de059968813bb02bd5685abdc4bcad829a70525a419336006838154811061174157611740612d83565b5b906000526020600020906006020160010160009054906101000a900473ffffffffffffffffffffffffffffffffffffffff166006848154811061178757611786612d83565b5b906000526020600020906006020160020154600685815481106117ad576117ac612d83565b5b906000526020600020906006020160030154600686815481106117d3576117d2612d83565b5b906000526020600020906006020160040154600687815481106117f9576117f8612d83565b5b90600052602060002090600602016005015460405161181d9695949392919061283d565b60405180910390a16003546006828154811061183c5761183b612d83565b5b906000526020600020906006020160040154141561185e5761185d81611edc565b5b50505050565b6000805b600180549050811015611903573373ffffffffffffffffffffffffffffffffffffffff16600182815481106118a05761189f612d83565b5b9060005260206000200160009054906101000a900473ffffffffffffffffffffffffffffffffffffffff1673ffffffffffffffffffffffffffffffffffffffff1614156118f05760019150611903565b80806118fb90612cdc565b915050611868565b50600115158115151461194b576040517f08c379a000000000000000000000000000000000000000000000000000000000815260040161194290612a40565b60405180910390fd5b6000341161198e576040517f08c379a000000000000000000000000000000000000000000000000000000000815260040161198590612980565b60405180910390fd5b34600460003373ffffffffffffffffffffffffffffffffffffffff1673ffffffffffffffffffffffffffffffffffffffff168152602001908152602001600020819055507fac14eddccc7f589bb98df7506295628deb5f9ec1e570c7b6386c8338e24e9e79333442604051611a05939291906128d5565b60405180910390a150565b6000805b600180549050811015611aaf573373ffffffffffffffffffffffffffffffffffffffff1660018281548110611a4c57611a4b612d83565b5b9060005260206000200160009054906101000a900473ffffffffffffffffffffffffffffffffffffffff1673ffffffffffffffffffffffffffffffffffffffff161415611a9c5760019150611aaf565b8080611aa790612cdc565b915050611a14565b506001151581151514611af7576040517f08c379a0000000000000000000000000000000000000000000000000000000008152600401611aee90612a40565b60405180910390fd5b81600460003373ffffffffffffffffffffffffffffffffffffffff1673ffffffffffffffffffffffffffffffffffffffff168152602001908152602001600020541015611b79576040517f08c379a0000000000000000000000000000000000000000000000000000000008152600401611b7090612ac0565b60405180910390fd5b60005b600680549050811015611c49573373ffffffffffffffffffffffffffffffffffffffff1660018281548110611bb457611bb3612d83565b5b9060005260206000200160009054906101000a900473ffffffffffffffffffffffffffffffffffffffff1673ffffffffffffffffffffffffffffffffffffffff161415611c36576040517f08c379a0000000000000000000000000000000000000000000000000000000008152600401611c2d90612a80565b60405180910390fd5b8080611c4190612cdc565b915050611b7c565b5081600460003373ffffffffffffffffffffffffffffffffffffffff1673ffffffffffffffffffffffffffffffffffffffff1681526020019081526020016000206000828254611c999190612bdf565b9250508190555060066040518060c001604052803373ffffffffffffffffffffffffffffffffffffffff1681526020018573ffffffffffffffffffffffffffffffffffffffff16815260200184815260200160025481526020016000815260200142815250908060018154018082558091505060019003906000526020600020906006020160009091909190915060008201518160000160006101000a81548173ffffffffffffffffffffffffffffffffffffffff021916908373ffffffffffffffffffffffffffffffffffffffff16021790555060208201518160010160006101000a81548173ffffffffffffffffffffffffffffffffffffffff021916908373ffffffffffffffffffffffffffffffffffffffff16021790555060408201518160020155606082015181600301556080820151816004015560a08201518160050155505060026000815480929190611df290612cdc565b91905055507f218d714c553080abb0dbc7fc5f603d19d591d24c58a81c89983579c96b55a3de338484600254600042604051611e33969594939291906127dc565b60405180910390a1505050565b611ed88282604051602401611e56929190612950565b6040516020818303038152906040527f319af333000000000000000000000000000000000000000000000000000000007bffffffffffffffffffffffffffffffffffffffffffffffffffffffff19166020820180517bffffffffffffffffffffffffffffffffffffffffffffffffffffffff8381831617835250505050612350565b5050565b60068181548110611ef057611eef612d83565b5b9060005260206000209060060201600201546004600060068481548110611f1a57611f19612d83565b5b906000526020600020906006020160010160009054906101000a900473ffffffffffffffffffffffffffffffffffffffff1673ffffffffffffffffffffffffffffffffffffffff1673ffffffffffffffffffffffffffffffffffffffff1681526020019081526020016000206000828254611f959190612b89565b9250508190555060068181548110611fb057611faf612d83565b5b906000526020600020906006020160010160009054906101000a900473ffffffffffffffffffffffffffffffffffffffff1673ffffffffffffffffffffffffffffffffffffffff166108fc6006838154811061200f5761200e612d83565b5b9060005260206000209060060201600201549081150290604051600060405180830381858888f1935050505015801561204c573d6000803e3d6000fd5b50600660016006805490506120619190612bdf565b8154811061207257612071612d83565b5b90600052602060002090600602016006828154811061209457612093612d83565b5b90600052602060002090600602016000820160009054906101000a900473ffffffffffffffffffffffffffffffffffffffff168160000160006101000a81548173ffffffffffffffffffffffffffffffffffffffff021916908373ffffffffffffffffffffffffffffffffffffffff1602179055506001820160009054906101000a900473ffffffffffffffffffffffffffffffffffffffff168160010160006101000a81548173ffffffffffffffffffffffffffffffffffffffff021916908373ffffffffffffffffffffffffffffffffffffffff160217905550600282015481600201556003820154816003015560048201548160040155600582015481600501559050507e651732be556371fa11f5620b32ac78dd0aa39e66173c97c37009121715d74d33600683815481106121d0576121cf612d83565b5b906000526020600020906006020160010160009054906101000a900473ffffffffffffffffffffffffffffffffffffffff166006848154811061221657612215612d83565b5b9060005260206000209060060201600201546006858154811061223c5761223b612d83565b5b9060005260206000209060060201600301546006868154811061226257612261612d83565b5b9060005260206000209060060201600401546006878154811061228857612287612d83565b5b9060005260206000209060060201600501546040516122ac9695949392919061283d565b60405180910390a160068054806122c6576122c5612d54565b5b6001900381819060005260206000209060060201600080820160006101000a81549073ffffffffffffffffffffffffffffffffffffffff02191690556001820160006101000a81549073ffffffffffffffffffffffffffffffffffffffff021916905560028201600090556003820160009055600482016000905560058201600090555050905550565b60008151905060006a636f6e736f6c652e6c6f679050602083016000808483855afa5050505050565b60008135905061238881613023565b92915050565b60008135905061239d8161303a565b92915050565b6000813590506123b281613051565b92915050565b6000602082840312156123ce576123cd612db2565b5b60006123dc84828501612379565b91505092915050565b600080604083850312156123fc576123fb612db2565b5b600061240a8582860161238e565b925050602061241b858286016123a3565b9150509250929050565b60006020828403121561243b5761243a612db2565b5b6000612449848285016123a3565b91505092915050565b600061245e83836124a0565b60208301905092915050565b60006124768383612743565b60c08301905092915050565b61248b81612c61565b82525050565b61249a81612c25565b82525050565b6124a981612c13565b82525050565b6124b881612c13565b82525050565b60006124c982612b1b565b6124d38185612b56565b93506124de83612afb565b8060005b8381101561250f5781516124f68882612452565b975061250183612b3c565b9250506001810190506124e2565b5085935050505092915050565b600061252782612b26565b6125318185612b67565b935061253c83612b0b565b8060005b8381101561256d578151612554888261246a565b975061255f83612b49565b925050600181019050612540565b5085935050505092915050565b61258381612c73565b82525050565b600061259482612b31565b61259e8185612b78565b93506125ae818560208601612ca9565b6125b781612db7565b840191505092915050565b60006125cf601983612b78565b91506125da82612dc8565b602082019050919050565b60006125f2602683612b78565b91506125fd82612df1565b604082019050919050565b6000612615601583612b78565b915061262082612e40565b602082019050919050565b6000612638602983612b78565b915061264382612e69565b604082019050919050565b600061265b601a83612b78565b915061266682612eb8565b602082019050919050565b600061267e601983612b78565b915061268982612ee1565b602082019050919050565b60006126a1602a83612b78565b91506126ac82612f0a565b604082019050919050565b60006126c4601b83612b78565b91506126cf82612f59565b602082019050919050565b60006126e7601783612b78565b91506126f282612f82565b602082019050919050565b600061270a602483612b78565b915061271582612fab565b604082019050919050565b600061272d601383612b78565b915061273882612ffa565b602082019050919050565b60c08201600082015161275960008501826124a0565b50602082015161276c6020850182612491565b50604082015161277f60408501826127be565b50606082015161279260608501826127be565b5060808201516127a560808501826127be565b5060a08201516127b860a08501826127be565b50505050565b6127c781612c57565b82525050565b6127d681612c57565b82525050565b600060c0820190506127f160008301896124af565b6127fe6020830188612482565b61280b60408301876127cd565b61281860608301866127cd565b612825608083018561257a565b61283260a08301846127cd565b979650505050505050565b600060c08201905061285260008301896124af565b61285f6020830188612482565b61286c60408301876127cd565b61287960608301866127cd565b61288660808301856127cd565b61289360a08301846127cd565b979650505050505050565b60006060820190506128b360008301866124af565b6128c060208301856124af565b6128cd60408301846127cd565b949350505050565b60006060820190506128ea60008301866124af565b6128f760208301856127cd565b61290460408301846127cd565b949350505050565b6000602082019050818103600083015261292681846124be565b905092915050565b60006020820190508181036000830152612948818461251c565b905092915050565b6000604082019050818103600083015261296a8185612589565b905061297960208301846124af565b9392505050565b60006020820190508181036000830152612999816125c2565b9050919050565b600060208201905081810360008301526129b9816125e5565b9050919050565b600060208201905081810360008301526129d981612608565b9050919050565b600060208201905081810360008301526129f98161262b565b9050919050565b60006020820190508181036000830152612a198161264e565b9050919050565b60006020820190508181036000830152612a3981612671565b9050919050565b60006020820190508181036000830152612a5981612694565b9050919050565b60006020820190508181036000830152612a79816126b7565b9050919050565b60006020820190508181036000830152612a99816126da565b9050919050565b60006020820190508181036000830152612ab9816126fd565b9050919050565b60006020820190508181036000830152612ad981612720565b9050919050565b6000602082019050612af560008301846127cd565b92915050565b6000819050602082019050919050565b6000819050602082019050919050565b600081519050919050565b600081519050919050565b600081519050919050565b6000602082019050919050565b6000602082019050919050565b600082825260208201905092915050565b600082825260208201905092915050565b600082825260208201905092915050565b6000612b9482612c57565b9150612b9f83612c57565b9250827fffffffffffffffffffffffffffffffffffffffffffffffffffffffffffffffff03821115612bd457612bd3612d25565b5b828201905092915050565b6000612bea82612c57565b9150612bf583612c57565b925082821015612c0857612c07612d25565b5b828203905092915050565b6000612c1e82612c37565b9050919050565b6000612c3082612c37565b9050919050565b600073ffffffffffffffffffffffffffffffffffffffff82169050919050565b6000819050919050565b6000612c6c82612c85565b9050919050565b6000612c7e82612c57565b9050919050565b6000612c9082612c97565b9050919050565b6000612ca282612c37565b9050919050565b60005b83811015612cc7578082015181840152602081019050612cac565b83811115612cd6576000848401525b50505050565b6000612ce782612c57565b91507fffffffffffffffffffffffffffffffffffffffffffffffffffffffffffffffff821415612d1a57612d19612d25565b5b600182019050919050565b7f4e487b7100000000000000000000000000000000000000000000000000000000600052601160045260246000fd5b7f4e487b7100000000000000000000000000000000000000000000000000000000600052603160045260246000fd5b7f4e487b7100000000000000000000000000000000000000000000000000000000600052603260045260246000fd5b600080fd5b6000601f19601f8301169050919050565b7f63616e6e6f74206465706f7375742076616c7565206f66203000000000000000600082015250565b7f63616e6e6f7420617070726f7665207468652073616d65207472616e7366657260008201527f2074776963650000000000000000000000000000000000000000000000000000602082015250565b7f7472616e73666572206964206e6f7420666f756e640000000000000000000000600082015250565b7f63616e6e6f74207472616e7366657220796f7572206f776e207472616e73666560008201527f7220726571756573740000000000000000000000000000000000000000000000602082015250565b7f63616e6e6f7420616464206475706c6963617465206f776e6572000000000000600082015250565b7f77616c6c6574206f776e6572206e6f7420646574656374656400000000000000600082015250565b7f6f6e6c792077616c6c6574206f776e6572732063616e2063616c6c207468697360008201527f2066756e637974696f6e00000000000000000000000000000000000000000000602082015250565b7f4f6e6c79207468652063726561746f722063616e2063616e63656c0000000000600082015250565b7f63616e6e6f742073656e6420746f20796f757273656c66000000000000000000600082015250565b7f6f6e6c7920746865207472616e736665722063726561746f722063616e20636160008201527f6e63656c00000000000000000000000000000000000000000000000000000000602082015250565b7f496e73756666696369656e7420616d6f756e7400000000000000000000000000600082015250565b61302c81612c13565b811461303757600080fd5b50565b61304381612c25565b811461304e57600080fd5b50565b61305a81612c57565b811461306557600080fd5b5056fea26469706673582212203f4352412203a9a8a640a70d69a7243acb12c08452a215fd4195a147f8835b7464736f6c63430008070033",
  "linkReferences": {},
  "deployedLinkReferences": {}
}